:020000040000FA
:0400000006EF07F010
:08000800056ED8CF06F0E0CF31
:1000100007F00001E9CF0DF0EACF08F0E1CF09F0D9
:10002000E2CF0AF0D9CF0BF0DACF0CF0F3CF14F017
:10003000F4CF15F0FACF16F000C00FF001C010F0A9
:1000400002C011F003C012F004C013F0A0AA2CEFFC
:1000500000F0A1BAFFEF05F00FC000F010C001F0F2
:1000600011C002F012C003F013C004F00E8E0DC0D8
:10007000E9FF08C0EAFF09C0E1FF0AC0E2FF0BC0C8
:10008000D9FF0CC0DAFF14C0F3FF15C0F4FF16C08F
:10009000FAFF055007C0E0FF06C0D8FF1000F76A5E
:1000A000AE0FF66E000EF7220900F55012000403A1
:1000B00000000000000000000000000000000DAE85
:1000C00003D0F2CF0EF0F29EF76AE00FF66E000E4C
:1000D000F7220900F5500DAE02D00EBEF28E1200CE
:1000E00040000800000000000000000000000000C8
:1000F0000000000000000000000000000000000000
:10010000F76A100FF66E010EF7220900F550120083
:100110000600FF0901A101190129081580257F7535
:10012000089508810219012908750895089102C0EF
:10013000F76A400FF66E010EF7220900F550120023
:100140000000F76A520FF66E010EF7220900F55013
:1001500012002000F76A640FF66E010EF722090004
:10016000F550120009022900010100C03209040003
:100170000002030000000921000100012220000705
:100180000581030800010705010308000100F76A63
:100190009E0FF66E010EF7220900F55012000100C5
:1001A000F76AB00FF66E010EF7220900F550120043
:1001B0001201100100000040610420000001010252
:1001C0000001F76AD20FF66E010EF7220900F55012
:1001D00012000403090408035300410043001C03F8
:1001E000530065006D00690066006C0075006900D1
:1001F00064002E0063006F006D006D926994689436
:100200000AEF06F06A6A689213EF06F0426A4252F9
:100210000AE1036A4250270FE96E000E0320EA6EDE
:10022000EF6A422AF4D71A6A010E1B6E196A000C93
:10023000010E4B6E4B500F080EE3700E4B24016EF7
:100240000F0E036ED8B0032A01C0E9FF03C0EAFF16
:10025000EF6A4B2AEFD71E6A1D6A000C400E04019C
:10026000016F050E036F026B880E006F046B050EA5
:10027000076F400E066F0001000C6A6A686A9F0EE5
:100280006B6E390E696E6E6AC1DFD2DF160E706E4C
:1002900068A602D06896FCD76D98E0DF030E1F6E4B
:1002A00019EF06F0698468986D821FEF06F0689C6C
:1002B00025EF06F070A002D0D1DF7090689A2BEF86
:1002C00006F046C020F0000CFF0E206E000C446AC1
:1002D00026523EE044503F083BE31C50FC0F2BE20B
:1002E000040FB2EF01F0036A2550F2CF46F0F29E00
:1002F00031DF46BEF28E456E1ED0036A2550F2CF26
:1003000046F0F29EFDDE46BEF28E456E14D0036AC4
:100310002550F2CF46F0F29E54DF46BEF28E456E77
:100320000AD0036A2550F2CF46F0F29E39DF46BE6E
:10033000F28E456E00D0252A26064450442A036AD0
:10034000400FE96E050E0320EA6E45C0EFFFC0D7EF
:10035000265204E14450400801E0196A44C046F0C6
:10036000B0DF000CE824F76AF7367F0FF66E030E55
:10037000F7220A00F550FA6E0800F550F96EE60211
:10038000FA020E032203256A1C6A05010351010AC1
:10039000000109E0030A0CE0010A0DE0220A22E054
:1003A000030A32E058D0120E266E030E1C6E55D092
:1003B000290E266E52D0020E1C6E036A05010251F0
:1003C000210FE96E000E0320EA6EEFCF25F0036ADD
:1003D0002550F2CF44F0F29E0001F3DE44BEF28ECF
:1003E000266E3BD0120E256E253C01D00BD0036A41
:1003F0002550F2CF44F0F29EADDE44BEF28E266E62
:100400002CD002D061DF35D0D89005010435036AC5
:10041000F2CF44F0F29E00018BDE0900F5CF03F02D
:1004200044BEF28E256E253C01D013D0010E1C6E09
:10043000D89005010435036AF2CF44F0F29E000122
:1004400080DE0900F5CF03F044BEF28E266E05D0A3
:1004500002D03ADF0ED038DF0CD00501075305E19A
:100460002650065D02E206C526F0010E196E000157
:100470002EDF000C435204E1040E1F6ED9DEC1D002
:10048000050E1F6E466E800E456E010E446E445082
:100490000F08D8A0B6D0476A036A4450F2CF4BF099
:1004A000F29EFDDD4BBEF28E000A51E0040E476E57
:1004B000D8904434036AF2CF4BF0F29E00DE09007C
:1004C000F5CF03F04BBEF28E486E03C049F04450A6
:1004D000080DF350010F016E040E036ED8B0032A0D
:1004E00001C0E9FF03C0EAFF48C0EFFF4450080D18
:1004F000F350020F016E040E036ED8B0032A01C040
:10050000E9FF03C0EAFF46C0ECFFED5245C0EFFF34
:10051000D8904434036AF2CF4BF0F29ED0DD09004C
:10052000F5CF03F04BBEF28E452603504622880ECF
:100530004A6E49B04A8049B24A824450080DF3CF0E
:1005400001F0040E01C0E9FFEA6E4AC0EFFF036A42
:100550004450F2CF4BF0F29EA2DD4BBEF28E000A69
:1005600031E047824450080DF350060F016E040E2F
:10057000036ED8B0032A01C0E9FF03C0EAFF46C0FA
:10058000ECFFED5245C0EFFFD8904434036AF2CF40
:100590004BF0F29E94DD0900F5CF03F04BBEF28ED6
:1005A0004526035046224450080DF350040F016EB7
:1005B000040E036ED8B0032A01C0E9FF03C0EAFFAE
:1005C000400EEF6E4750060802E10E0E476E036ABA
:1005D0004450F2CF4BF0F29E62DD4BBEF28E020829
:1005E00001E04788700E4424016E0F0E036ED8B0F0
:1005F000032A01C0E9FF03C0EAFF47C0EFFF442A16
:1006000046D74DEF03F00501015100010DE0010A4D
:1006100014E0020A1EE0060A27E0030A2CE00E0A94
:100620002CE0010A30E03DD01BC040F50501416BD4
:10063000020E466E000145DE36D00501022D06D0C1
:10064000010E1B16466A00013CDE02D000013CDEB2
:100650002AD00501022D05D01B82466A000131DE39
:1006600002D0000131DE1FD0020E196E02C524F047
:10067000466A27DE18D087DE16D01AC040F5010E74
:10068000466E1FDE10D005010251010808E302C5C5
:100690001AF002C543F00001EDD6466A12DE0001F1
:1006A00002D012DE00D083EF04F01AC043F005013F
:1006B0000151000107E00A0A0DE0010A2DE00D0AD0
:1006C0003DE03ED00501406B416B020E466E0001DD
:1006D000F8DD38D043521EE0010E435C036AF2CFCE
:1006E00045F0F29E54DD45BEF28E016E0501045DBB
:1006F000D8A002D000010ED0036A0451270FE96E82
:10070000000E0320EA6EEFCF40F5010E466E0001A9
:10071000D8DD01D0D9DD16D043520EE0036A0501C1
:100720000451270FE96E000E0320EA6E02C5EFFFA9
:10073000466A0001C6DD01D0C7DD04D024DE02D048
:10074000C3DD00D083EF04F0449043BE4480439E59
:1007500044A010D0036A4350F2CF45F0F29E9FDCD4
:1007600045BEF28E000A02E1000E01D0010E016EBC
:1007700010D00FD0036A4350F2CF45F0F29E8FDCC9
:1007800045BEF28E000A02E1000E01D0010E016E9C
:1007900000D03BEF04F0449043BE4480439E44A00D
:1007A00010D04350080DF350040F016E040E036E79
:1007B000D8B0032A01C0E9FF03C0EAFF880EEF6E3C
:1007C00009D04350080DF3CF01F0040E01C0E9FF3A
:1007D000EA6EEF6A4AEF04F0449043BE4480439EC1
:1007E00044A010D04350080DF350040F016E040EC6
:1007F000036ED8B0032A01C0E9FF03C0EAFF840EEC
:10080000EF6E0AD04350080DF3CF01F0040E01C083
:10081000E9FFEA6E840EEF6E50EF04F0449043BEA1
:100820004480439E44A010D04350080DF350040F61
:10083000016E040E036ED8B0032A01C0E9FF03C0A5
:10084000EAFFEFCF45F00AD04350080DF3CF01F097
:10085000040E01C0E9FFEA6EEFCF45F045AE02D0CD
:1008600045B402D0000E01D0010E016E5AEF04F023
:1008700004C543F069D7015229E005010151010A7D
:10088000000105E0020A09E0030A0DE01DD004C5DD
:1008900043F081D7466A15DD19D004C543F09CD7D3
:1008A000466A0FDD13D00501406B416B04C543F070
:1008B0000001B4D7015204E0010E0501406F0001B0
:1008C000020E466EFEDC02D0FFDC00D083EF04F0A7
:1008D0000501015100D00001F7DC00D083EF04F0E6
:1008E000196A050100517F0B000107E0010A06E0CB
:1008F000030A05E0230A04E004D085D6D6D6B8D78B
:10090000E7D7E2DC00D0AAEF05F04350080DF3CFA3
:1009100001F0040E01C0E9FFEA6EEFCF45F044504C
:10092000020806E145AC02D0446A02D0010E446ED2
:100930004450030812E1840E456E4350080DF350F5
:10094000040F016E040E036ED8B0032A01C0E9FF44
:1009500003C0EAFF840EEF6E09D0442C03D0C80E0A
:10096000456E04D0445202E1880E456E036A010EC2
:10097000026E4350006E05E0D89002360336002E1A
:10098000FBD70250FF0A006EFF0E031A00501D161F
:1009900003501E16D8904334036AF2CF48F0F29EFB
:1009A0005FEC00F00900F5CF03F048BEF28E466E12
:1009B00003C047F04350080DF350010F016E040EC1
:1009C000036ED8B0032A01C0E9FF03C0EAFF46C0A6
:1009D000EFFF47B0458047B245824350080DF3CF43
:1009E00001F0040E01C0E9FFEA6E45C0EFFF000C04
:1009F0004350080DF350040F016E040E036ED8B07F
:100A0000032A01C0E9FF03C0EAFFEFCF47F047BE6A
:100A10005BD04350080DF350050F016E040E036EBA
:100A2000D8B0032A01C0E9FF03C0EAFF44C0EFFFCA
:100A30004650020816E14350080DF350040F016EB2
:100A4000040E036ED8B0032A01C0E9FF03C0EAFF19
:100A5000EFCF47F047AC02D0466A02D0010E466E97
:100A600013D04650040810E14350080DF3CF01F0B5
:100A7000040E01C0E9FFEA6EEFCF47F047AC03D0A8
:100A8000010E466E01D0466A462C03D0C80E476E52
:100A900004D0465202E1880E476E45B0478045B209
:100AA00047824350080DF350040F016E040E036E8D
:100AB000D8B0032A01C0E9FF03C0EAFF47C0EFFF37
:100AC000010E016E03D000D0000E016E000C4352E7
:100AD00003E12EEC01F00FD0036A010E026E4350C9
:100AE000006E05E0D89002360336002EFBD7025088
:100AF0001D1203501E12000C44C06EFF445203E04E
:100B0000040E1F6E02D0020E1F6E8CEF05F01A6AE3
:100B1000196A24C044F0F0D799EF05F0435209E177
:100B2000192C03D067EC01F004D01950020801E140
:100B3000EED7000C6C30426E423242321F0E42162B
:100B40006C523BE1040100513C0B34081BE1046B87
:100B50000001C6D6203C05D0436A030E446ED5DEA4
:100B60000ED0436A020E446ED0DE2050FE0807E02D
:100B7000436A456A20C044F0040E466E39DF6D9822
:100B800019D0040100513C0B040815E1436A00012F
:100B90009EDF436A020E446EB8DE2050FE080AE073
:100BA000203C01D007D0436A456A20C044F0010EC2
:100BB000466E1EDF040120D000016C50040812E1D3
:100BC000FF0E206E436AAADF203C01D008D0436AA2
:100BD000456A20C044F0020E466E0ADF02D02EECB9
:100BE00001F009D06CB404D042C043F070DF03D0F0
:100BF00042C043F093DF0401000130EF06F01F52C2
:100C000001E12FD068522DE068A404D069A402D07D
:100C1000FDEF00F06DA201D024D068A204D069A23B
:100C200002D002EF01F068A004D069A002D03DEF2D
:100C300001F068A804D069A802D052EF01F068ACB6
:100C400004D069AC02D057EF01F068AA04D069AAB9
:100C500002D05AEF01F068A604D069A602D06AD784
:100C60006896A19A2CEF00F06D6A696A080E6F6EA3
:100C700094503009946E1F6A186AF2BE188EF29E64
:100C800006EC01F018BEF28E1E6A1D6A6BEF06F0CC
:100C9000186AF2BE188EF29E06EC01F018BEF28EB3
:100CA0006D6A140E6F6E696A6D86010E1F6E5CEFC1
:100CB00006F06DB601D0ECD71F2C0BD06DBA09D061
:100CC000686A696AA08AC00EF212110E696E020E7D
:100CD0001F6E000CC9D7EDDF1F500208FCE119EFB1
:100CE00007F0010E326E1AC033F0335203E0939EC8
:100CF0008A8E02D0939E8A9E32C030F033C031F08B
:100D00001BEF07F03550080DF350020F016E040E73
:100D1000036ED8B0032A01C0E9FF03C0EAFFECCF9D
:100D200003F0ED52EFCF3AF003C03BF03550080D21
:100D3000F350010F016E040E036ED8B0032A01C0F8
:100D4000E9FF03C0EAFFEF50036A3D6E03C03EF0C7
:100D50003550080DF3CF01F0040E01C0E9FFEA6E33
:100D6000EFCF3CF03CB03E803CB23E823E50395C1E
:100D700008E303E138503D5C04E23EC039F03DC079
:100D800038F03E6A3D6A3E50395C1AE303E1385060
:100D90003D5C16E23AC0E9FF3BC0EAFFEFCF41F00D
:100DA00037C0EAFF36C0E9FF41C0EFFF362AD8B4AA
:100DB000372A3A2AD8B43B2A3D2AD8B43E2AE3D768
:100DC00038C001F039C002F0F1EF06F030C035F064
:100DD00032C037F031C036F034C039F033C038F0AB
:100DE00091D702C034F001C033F0186AF2BE188EF9
:100DF000F29E30C043F0020E446E87DD18BEF28EC4
:100E000033C001F034C002F028EF07F0F86AD09E3A
:100E10000D8EEA6AE96AC150C00B0F09C16E070E58
:100E2000B46E1F6A216A040E226E0C0E236E266AAF
:100E300051D73FDF56D71A5215E01DA213D0010E2D
:100E4000306E326A280E316E346A080E336EBED7A9
:100E50002850310802E1939C8A8C2850320802E124
:080E6000939C8A9CE6D7030075
:020000040030CA
:0E00000028023E1E008385000FC00FE00F4057
:00000001FF
;PIC18F2550
